:100000000C9404010C942C010C942C010C942C01E4
:100010000C942C010C942C010C942C010C942C01AC
:100020000C942C010C942C010C9438070C94AA0706
:100030000C942C010C942C010C942C010C942C018C
:100040000C942C010C942C010C942C010C942C017C
:100050000C942C010C942C010C942C010C94EE06A5
:100060000C942C010C942C010C942C010C942C015C
:100070000C942C010C942C010C942C010C942C014C
:100080000C942C010C942C010C942C010C942C013C
:100090000C942C010C942C010C942C010C942C012C
:1000A0000C942C010C942C010C942C0100000000E9
:1000B000000000002A2B28000000000000000000C3
:1000C0000000000000000000000000002C9EB4A012
:1000D000A1A2A434A6A7A5AE362D3738271E1F200F
:1000E000212223242526B333B62EB7B89F848586D4
:1000F0008788898A8B8C8D8E8F9091929394959618
:100100009798999A9B9C9D2F3130A3AD3504050695
:100110000708090A0B0C0D0E0F10111213141516F7
:100120001718191A1B1C1DAFB1B0B500080B00023F
:10013000020201000904000001020200000524007F
:100140001001052401010104240206052406000112
:100150000705810310004009040100020A000000A5
:100160000705020240000007058302400000040367
:10017000090412010002EF02014041233680000110
:100180000102030141726475696E6F204C4C43009B
:1001900041726475696E6F204C656F6E6172646F39
:1001A0000005010902A1010901A100850105091944
:1001B000012903150025019503750181029501753B
:1001C00005810305010930093109381581257F753D
:1001D0000895038106C0C005010906A10185020535
:1001E0000719E029E7150025017501950881029599
:1001F0000175088103950675081500257305071913
:100200000029738100C0E80911241FBECFEFDAE096
:10021000DEBFCDBF11E0A0E0B1E0ECE3F7E102C04A
:1002200005900D92AE33B107D9F721E0AEE3B1E00E
:1002300001C01D92A03FB207E1F711E0C4E0D1E098
:1002400004C02197FE010E94910BC330D107C9F76A
:100250000E94810A0C949C0B0C9400002091760162
:10026000211103C08FEF9FEF08955FB7F89422E04C
:100270002093E9002091F20030E01216130614F4E6
:1002800021E030E0422FFC0184E6415038F028980C
:10029000809375019091F1009193F7CF211531056D
:1002A00021F08091F200882319F05FBFC901089501
:1002B0008BE68093E800F9CF3FB7F8948091710105
:1002C00090917201A0917301B091740126B5A89B21
:1002D00005C02F3F19F00196A11DB11D3FBFBA2FD8
:1002E000A92F982F8827820F911DA11DB11DBC0138
:1002F000CD0142E0660F771F881F991F4A95D1F7FD
:1003000008958F929F92AF92BF92CF92DF92EF9219
:10031000FF926B017C010E945C014B015C01C114E6
:10032000D104E104F104F1F00E945C01DC01CB0195
:1003300088199909AA09BB09883E9340A105B1050E
:1003400070F321E0C21AD108E108F10888EE880EA6
:1003500083E0981EA11CB11CC114D104E104F10476
:1003600019F7DDCFFF90EF90DF90CF90BF90AF9067
:100370009F908F9008954091650150916601209162
:1003800063013091640142175307B4F49091E8007F
:100390009570E1F39091E80092FD19C08093F1000F
:1003A000809165019091660101968F739927892B41
:1003B00019F48EEF8093E8008091650190916601B9
:1003C0000196909366018093650181E0089580E035
:1003D0000895DF92EF92FF920F931F93CF93DF93D5
:1003E000D82EF92EE42E062F10E0C8010196880FB2
:1003F0000E94BB0183E00E94BB01CD2DDF2D0C0FBD
:100400001D1FC017D10789F0E7FE03C0FE018491CC
:1004100001C088810E94BB01F82E80E00E94BB01D0
:100420008F2121968111EDCF01C081E0DF91CF9125
:100430001F910F91FF90EF90DF900895DF92EF9260
:10044000FF920F931F93CF93DF93D82E8A017B01E6
:10045000E40EF51EEB01CE15DF0571F0D7FE03C0EB
:10046000FE01849101C088810E94BB012196811107
:10047000F2CF8FEF9FEF01C0C801DF91CF911F91A5
:100480000F91FF90EF90DF9008952FB7F894877049
:100490008093E9009091E800892F807295FF04C055
:1004A0009091F20080E4891B2FBF08957F928F9274
:1004B0009F92AF92BF92CF92DF92EF92FF920F93F3
:1004C0001F93CF93DF93C82E8B017A018091760121
:1004D000811103C08FEF9FEF74C08091690180FF8D
:1004E00005C08091E00082608093E000CE2DDF2D7A
:1004F000D12C8AEFB82E8C2D8770982E8C2D80727F
:10050000882E8C2D8074782E9AE3A92E209719F4CA
:10051000DD2009F451C08C2D0E94450281110AC0D2
:10052000BA94BB20B9F261E070E080E090E00E94F4
:100530008101ECCF282F30E0C217D3070CF48C2FA9
:100540009FB7F8949092E9002091E80025FF32C00F
:10055000282F30E0C21BD30B882029F08150A0F057
:100560001092F100FBCFF801C7FE0AC0815050F095
:1005700044914093F1003196F9CF41914093F100BD
:100580008150D8F7020F131FDD2019F0A092E80068
:100590000AC08091E80085FD08C0A092E800DD2433
:1005A000D394209739F0D12C05C0209719F47110FD
:1005B000A092E8009FBFAACF5D9884E6809368016F
:1005C000C701DF91CF911F910F91FF90EF90DF90C6
:1005D000CF90BF90AF909F908F907F900895AF92F3
:1005E000BF92CF92DF92EF92FF920F931F93CF9320
:1005F000DF931F92CDB7DEB77C0169836A01590191
:1006000041E050E0BE016F5F7F4FFC0183810E949B
:1006100056028C0197FD0BC0F7018381A501B6013D
:1006200080640E94560297FD02C0800F911F0F90B8
:10063000DF91CF911F910F91FF90EF90DF90CF90BE
:10064000BF90AF900895615030F02091F100FC010F
:1006500020830196F8CF289884E680937501089549
:10066000CF92DF92EF92FF920F931F93CF93DF937E
:100670006C017A018B01C0E0D0E0CE15DF0581F07E
:10068000D8016D918D01D601ED91FC910190F08121
:10069000E02DC6010995892B11F02196EECF7E0140
:1006A000C701DF91CF911F910F91FF90EF90DF90E5
:1006B000CF90089580915B0181110DC082E08093FD
:1006C000570184E08093580110925A011092590109
:1006D00081E080935B0187E591E008950F931F937C
:1006E000CF93DF931F92CDB7DEB782E0898342E4D8
:1006F00050E06CE271E080E80E941E020E945A0302
:10070000DC0112960D911C9113970115110589F0CA
:10071000D801ED91FC910280F381E02DBE016F5F65
:100720007F4FC801099597FD04C0F8010085118528
:10073000ECCF89810F90DF91CF911F910F91089598
:10074000CF93DF93EC0180911201882331F083E095
:100750000E9456021816190634F081E090E09B833F
:100760008A8380E090E0DF91CF910895CF93DF936B
:100770001F92CDB7DEB76983DC01ED91FC91028059
:10078000F381E02D41E050E0BE016F5F7F4F09959E
:100790000F90DF91CF91089583E08093E9008091DD
:1007A000F200882319F08AE38093E800089583E03B
:1007B0000E94450290E00895CF93DF931F92CDB73A
:1007C000DEB7FC018485958597FD05C02FEF3FEFCF
:1007D000358724870BC0CE0101960E942E01019718
:1007E00019F4898190E002C08FEF9FEF0F90DF91A5
:1007F000CF9108950F931F93CF93DF931F92CDB79F
:10080000DEB78C01FC018485958597FF0EC0CE0173
:1008100001960E942E01019719F4898190E002C08F
:100820008FEF9FEFF80195878487F8018485958580
:100830000F90DF91CF911F910F910895FC01848556
:10084000958597FD0BC09FB7F89482E08093E900EF
:100850008091F2009FBF90E0019608959FB7F894B1
:1008600082E08093E9008091F2009FBF90E00895BC
:10087000DC01FB0112968C91129790E02481358166
:1008800082179307D1F491818081813A31F481E01C
:10089000913091F0933089F411C0813271F49B3022
:1008A00021F482811F968C9305C09A3031F48281A5
:1008B00050968C9381E00895089580E00895DC01BE
:1008C000FB0188E4808389E4818384E482831D962C
:1008D0009C911D979F709F5B93831D968D919C911A
:1008E0001E9724E0969587952A95E1F78F708F5B88
:1008F000848385E00895EF92FF920F931F93CF9327
:10090000DF93FB012081213851F52381223239F513
:10091000DC0112962C9130E0448155814217530737
:10092000F1F4EC010B851C85E12CF12C011511056E
:1009300091F0F801448155816281738180E80E94C1
:100940001E028F3FFFEF9F0769F0E80EF91ED801E6
:100950000D911C91EBCF81E08F87C70105C080E02E
:1009600090E002C08FEF9FEFDF91CF911F910F9129
:10097000FF90EF900895CF93DF93CDB7DEB76997DF
:100980000FB6F894DEBF0FBECDBFFC01DB018C912A
:100990008F5F8C93BE016F5F7F4F89E1DB011D92FA
:1009A0008A95E9F729E0298384E08A8391E09D8391
:1009B00083E08E832A8721E22B879C879D879F87F0
:1009C00022E2288B27E02B8B25E02C8B8E8B20E4DA
:1009D00030E0388F2F8B998F82818B839585868528
:1009E000998B8A8B838180688D8B49E150E080E010
:1009F0000E941E0269960FB6F894DEBF0FBECDBFEF
:100A0000DF91CF910895CF93DF9380914F018111B2
:100A10006AC081E0809342018093430128E431E081
:100A200030934501209344011092470110924601F2
:100A300027E131E030933F0120933E0110924A01BB
:100A40001092490110924C0110924B0180934D017C
:100A500080934E0181EC809348010E945A03FC016F
:100A600021818091420190E0820F911D0897C4F589
:100A7000A281B381109729F48EE391E0938382835E
:100A80000EC018968D919C911997009711F0DC017A
:100A9000F8CF8EE391E019969C938E9318978081FE
:100AA0008093400181818093410190818091430135
:100AB000890F808380E090914201891788F49181A9
:100AC000A92FB0E0A050BF4FC0914401D091450183
:100AD000C80FD11D28812C939F5F91838F5FEBCF2F
:100AE00081E080934F018EE391E0DF91CF910895F3
:100AF000CF93DF9300D000D0CDB7DEB79091D50172
:100B000099838A836B834C830E94030524E030E041
:100B1000AE014F5F5F4F61E00E94EF020F900F90B8
:100B20000F900F90DF91CF9108959091D50180950E
:100B30008923981739F08093D50140E060E080E088
:100B40000C94780508959091D501892B981739F068
:100B50008093D50140E060E080E00C947805089532
:100B60008093D50140E060E080E00E94780510921B
:100B7000D50140E060E080E00C947805FC018281C2
:100B80008F5BFB01808381E00895CF92DF92EF922B
:100B9000FF920F931F93CF93DF936C01EB017B01C7
:100BA000E40EF51E00E010E0CE15DF0581F069913E
:100BB0006D30D1F3D601ED91FC910190F081E02DE3
:100BC000C6010995892B19F00F5F1F4FEDCFC801A2
:100BD000DF91CF911F910F91FF90EF90DF90CF9019
:100BE0000895CF93DF93DC01683810F0685825C072
:100BF000E62FF0E067FF12C0E058F10981E090E0D5
:100C000001C0880FEA95EAF7809514969C91149795
:100C1000892314968C93149760E00FC0E455FF4F1E
:100C20006491662321F167FF08C014968C91149794
:100C30008D7F14968C9314976F77FD0186E0662361
:100C400021F09681691301C016828150319681117D
:100C5000F6CFED010E940305AE014C5F5F4F28E027
:100C600030E062E00E94EF0281E090E002C080E0AC
:100C700090E0DF91CF910895CF93DF93DC01683846
:100C800010F068582DC0E62FF0E067FF11C0E05863
:100C9000F10981E090E001C0880FEA95EAF7149627
:100CA0009C911497892B14968C93149760E018C02C
:100CB000E455FF4F6491611109C081E090E0139603
:100CC0009C938E93129780E090E046C067FF08C027
:100CD00014968C911497826014968C9314976F7766
:100CE00016968C911697681751F117968C91179755
:100CF000681729F118968C911897681701F11996C1
:100D00008C9119976817D9F01A968C911A976817D1
:100D1000B1F01B968C911B97681789F0FD013696F0
:100D200080E090E02191211105C0FD01E80FF91F3D
:100D3000668305C0019686309105A1F7BECFED010F
:100D40000E940305AE014C5F5F4F28E030E062E097
:100D50000E94EF0281E090E0DF91CF910895EF9241
:100D6000FF921F93CF93DF93EC01162F0E943C0656
:100D70007C01612FCE010E94F105C7019927DF9107
:100D8000CF911F91FF90EF900895089580E090E03B
:100D9000089560EE87E791E00E94B60387E791E04F
:100DA0000E941E04892B89F460E884EE91E00E9481
:100DB0003C0660E884EE91E00E94F10564E670E094
:100DC00080E090E00E948101E9CF87E791E00E94F6
:100DD000DC0380936B0108950E94970B1F920F9282
:100DE0000FB60F9211242F933F938F939F93AF933E
:100DF000BF9380916D0190916E01A0916F01B091B0
:100E0000700130916C0123E0230F2D3720F40196FF
:100E1000A11DB11D05C026E8230F0296A11DB11D1D
:100E200020936C0180936D0190936E01A0936F01EC
:100E3000B09370018091710190917201A091730142
:100E4000B09174010196A11DB11D80937101909321
:100E50007201A0937301B0937401BF91AF919F9100
:100E60008F913F912F910F900FBE0F901F9018956B
:100E70001F920F920FB60F9211248F939F93809120
:100E8000E1009091E100937F9093E10083FF0FC018
:100E90001092E90091E09093EB001092EC0092E345
:100EA0009093ED001092760198E09093F00082FF0D
:100EB00020C093E09093E9009091F200992319F0FB
:100EC0009AE39093E80090916801992339F090910A
:100ED0006801915090936801992389F1909175016F
:100EE000992339F090917501915090937501992350
:100EF00041F184FF10C08091E2008E7E816080937A
:100F0000E2008091E1008F7E8093E1008091690191
:100F10008E7E806111C080FF16C08091E2008E7EBF
:100F200080618093E2008091E1008E7E8093E100F9
:100F3000809169018E7E81608093690104C05D9A11
:100F4000CDCF289AD6CF9F918F910F900FBE0F9043
:100F50001F9018951F920F920FB60F921124CF92E7
:100F6000DF92EF92FF920F931F932F933F934F9334
:100F70005F936F937F938F939F93AF93BF93EF9301
:100F8000FF93CF93DF93CDB7DEB76C97DEBFCDBFB6
:100F90001092E9008091E80083FFFBC168E0CE0178
:100FA00045960E94230382EF8093E8008D8987FF96
:100FB00005C09091E80090FFFCCF03C09EEF909396
:100FC000E800982F907609F0C6C09E894F89588D09
:100FD0002F89F88C91110CC0803829F480916A0116
:100FE0008093F10002C01092F1001092F10045C10F
:100FF000913051F4811141C14130510509F03DC199
:1010000080916A018D7F0BC0933061F4811135C1ED
:101010004130510509F031C180916A0182608093AD
:101020006A012BC1953049F48091E80080FFFCCF24
:10103000822F80688093E30020C1963009F05EC063
:101040000B8D1C8D22E01092E90010926601109227
:101050006501F21232C010926401109263010E9485
:101060006E0399E0BE016F5F7F4FDB01E92F1D9298
:10107000EA95E9F79983FA8291E09E8390EA98874E
:101080009AEF99872091650130916601275F3F4F64
:101090003C832B838D831092E9001092660110929D
:1010A0006501109364010093630149E050E080E022
:1010B0000E941E020E946E03E0C010936401009320
:1010C00063010E945A03DC0112960D911C91139743
:1010D0000115110509F4BBC0D801ED91FC91048004
:1010E000F581E02DBE016B5E7F4FC8010995009729
:1010F00009F0C7C0F80100851185EACF973009F4DF
:1011000045C1983021F481E08093F100B6C0993058
:1011100009F0B3C0837009F039C1E1E0F1E081E08A
:1011200031E096E32081211109C08EE78093EA0027
:101130001092EA008F89809376019FC08093E90026
:101140003093EB0021912093EC009093ED008F5FA2
:10115000873041F7EACF8B8D9C8D1092E900109279
:101160006601109265019093640180936301898DFB
:10117000811153C08E899D89913A49F4813209F0D9
:1011800005C147E050E06BE071E080E0BBC0913208
:1011900009F0FCC0833269F48F89988DA0E0B0E03B
:1011A0008093070190930801A0930901B0930A016D
:1011B00064C0803269F48091E80082FFFCCF67E070
:1011C0008BE091E00E9423038BEF8093E80055C0F1
:1011D000823209F052C08F8980931201EEEFFFE74F
:1011E000859194918B3F9C4D19F0E0E0F8E002C0AE
:1011F000EEEFFAE080910B0190910C01A0910D01AE
:10120000B0910E01803B9440A105B10509F09EC04C
:101210008091120180FF79C099C00E945A03FC019D
:10122000028113810115110509F4B0C0D801ED91B7
:10123000FC910190F081E02DBE016B5E7F4FC801F3
:10124000099581111AC0F80100851185EBCFF1E0F5
:10125000FF1609F44EC0F3E0FF1298C08F8988236F
:1012600009F44AC0823089F440E860E180E991E005
:101270000E94E901882309F489C08EEF8093E80079
:1012800088C018161906CCF381C0813029F440E8D3
:101290006BE084E891E0ECCF833009F077C00E94E6
:1012A0005A03DC011296ED90FC9013978E010F5FAC
:1012B0001F4F6801E114F10479F0D701ED91FC9121
:1012C0000680F781E02DB801C7010995080F111DAF
:1012D000F701E084F184EECFD8011C92F601019071
:1012E0000020E9F73197BF016C197D0940E0C60184
:1012F000BFCF62E771E002C06EE671E0FB0144918E
:1013000050E080E80E941E02B8CFEE3F2AE0F207CC
:1013100051F0808191818737A7E79A0721F0909358
:10132000FF0A8093FE0A87E797E791838083809185
:101330006000809367019BE088E10FB6F894A89560
:10134000809360000FBE9093600097CF8081918161
:101350008737974709F091CFA89580916000886101
:10136000809360008091670180936000EE3FBAE057
:10137000FB0739F08091FE0A9091FF0A91838083E8
:101380007CCF1092FF0A1092FE0A77CF81E2809301
:10139000EB006C960FB6F894DEBF0FBECDBFDF91A9
:1013A000CF91FF91EF91BF91AF919F918F917F91DD
:1013B0006F915F914F913F912F911F910F91FF90EE
:1013C000EF90DF90CF900F900FBE0F901F90189569
:1013D00010927A011092790188EE93E0A0E0B0E0DB
:1013E00080937B0190937C01A0937D01B0937E015B
:1013F00083E291E090937801809377018FEF9FEFE4
:1014000090938401809383011092D5018091CD0146
:10141000811113C01092C8011092C70181EA91E0B6
:101420009093CA018093C90186E390E09093CC0128
:101430008093CB0181E08093CD010E940305FC01E4
:10144000A385B485109729F487EC91E0948783876E
:101450000BC08D919C911197009711F0DC01F9CF91
:1014600087EC91E08D939C93258536858091CB0107
:101470009091CC01820F931F968785871092E70188
:101480001092E60185E391E09093E5018093E401F9
:101490008091DC01811113C01092D7011092D60106
:1014A00087ED91E09093D9018093D8018FE290E08D
:1014B0009093DB018093DA0181E08093DC010E944C
:1014C0000305FC01A385B485109729F486ED91E00E
:1014D000948783870BC08D919C911197009711F091
:1014E000DC01F9CF86ED91E08D939C9325853685BF
:1014F0008091DA019091DB01820F931F9687858797
:101500000895789484B5826084BD84B5816084BD7B
:1015100085B5826085BD85B5816085BD80916E0091
:10152000816080936E0010928100809181008260C2
:1015300080938100809181008160809381008091FF
:101540008000816080938000809191008260809310
:101550009100809191008160809391008091900032
:101560008160809390008091C10084608093C1006D
:101570008091C10082608093C1008091C100816030
:101580008093C1008091C30081608093C3008091EB
:10159000C00082608093C0008091C200816080930F
:1015A000C20080917A00846080937A0080917A00F2
:1015B000826080937A0080917A00816080937A00C3
:1015C00080917A00806880937A0010927601109260
:1015D0006A01109269018091D70081608093D700E1
:1015E00080EA8093D80089B5806189BD89B5826021
:1015F00089BD09B400FEFDCF61E070E080E090E0BD
:101600000E9481018091D8008F7C80618093D800F6
:101610008091E000807F8093E0008091E1008E7EE9
:101620008093E1008DE08093E200559A209A8FB775
:10163000F89440916D0150916E0160916F0170912D
:1016400070018FBF8FEF9FEF909384018093830190
:10165000C0E0D0E00E94C90680916B01873B89F110
:1016600080F4833B41F140F4813BC9F010F58531B2
:1016700009F04CC061E74BC0853BF9F000F581E013
:101680002AC08B3B59F128F4893B01F118F584E01D
:101690001AC08C3B51F1885C8230E8F137C00E945F
:1016A000C90610916B010E94C90640E060916B0170
:1016B00029C081E008C082E006C082E00CC081E061
:1016C00006C082E004C00E94B00525C084E00E94EC
:1016D000950521C084E00E94A3051DC00E94C90693
:1016E00040916B0160E080E00EC00E94C90610913D
:1016F0006B010E94C90600916B010E94C9064091CE
:101700006B01602F812F0E94780505C067E887E78D
:1017100091E00E94B603209709F49CCF0E9400003C
:1017200099CFEE0FFF1F0590F491E02D099481E011
:0C17300090E0F8940C949C0BF894FFCF10
:10173C0000C18081000000FFFFFFFF00E1000000FE
:10174C00000000000000003804BB047B045F0400B0
:10175C00000000B603A003D703CC031E04DC03FA7D
:0E176C000300000000AF06C505C606C5060056
:00000001FF
